{
  "_format": "hh3-artifact-1",
  "contractName": "Bank",
  "sourceName": "contracts/Bank.sol",
  "abi": [
    {
      "inputs": [],
      "name": "Bank__NotEnoughEthersOnTheSC",
      "type": "error"
    },
    {
      "inputs": [],
      "name": "Bank__NotEnoughFundsProvided",
      "type": "error"
    },
    {
      "inputs": [],
      "name": "Bank__WithdrawFailed",
      "type": "error"
    },
    {
      "inputs": [
        {
          "internalType": "address",
          "name": "_user",
          "type": "address"
        }
      ],
      "name": "getBalanceOfUser",
      "outputs": [
        {
          "internalType": "uint256",
          "name": "",
          "type": "uint256"
        }
      ],
      "stateMutability": "view",
      "type": "function"
    },
    {
      "inputs": [],
      "name": "sendEthers",
      "outputs": [],
      "stateMutability": "payable",
      "type": "function"
    },
    {
      "inputs": [
        {
          "internalType": "uint256",
          "name": "_amount",
          "type": "uint256"
        }
      ],
      "name": "withdraw",
      "outputs": [],
      "stateMutability": "nonpayable",
      "type": "function"
    }
  ],
  "bytecode": "0x6080604052348015600e575f5ffd5b506102628061001c5f395ff3fe608060405260043610610033575f3560e01c80630783cda7146100375780632e1a7d4d1461004157806345909a6f14610060575b5f5ffd5b61003f6100a6565b005b34801561004c575f5ffd5b5061003f61005b3660046101a8565b6100ec565b34801561006b575f5ffd5b5061009461007a3660046101bf565b6001600160a01b03165f9081526020819052604090205490565b60405190815260200160405180910390f35b60013410156100c75760405162037bd560e91b815260040160405180910390fd5b335f90815260208190526040812080543492906100e5908490610200565b9091555050565b335f9081526020819052604090205481111561011b576040516375c29b3d60e11b815260040160405180910390fd5b335f9081526020819052604081208054839290610139908490610219565b90915550506040515f90339083908381818185875af1925050503d805f811461017d576040519150601f19603f3d011682016040523d82523d5f602084013e610182565b606091505b50509050806101a457604051630852154960e41b815260040160405180910390fd5b5050565b5f602082840312156101b8575f5ffd5b5035919050565b5f602082840312156101cf575f5ffd5b81356001600160a01b03811681146101e5575f5ffd5b9392505050565b634e487b7160e01b5f52601160045260245ffd5b80820180821115610213576102136101ec565b92915050565b81810381811115610213576102136101ec56fea2646970667358221220ec9575046ae70032c412986e60124d4d9e0b843168d90eb4a0ad1f525d5d478c64736f6c634300081c0033",
  "linkReferences": {},
  "deployedLinkReferences": {},
  "immutableReferences": {},
  "inputSourceName": "project/contracts/Bank.sol",
  "buildInfoId": "solc-0_8_28-131edb38503acc066fcf8cc906ff6ad4dd87af81"
}